S00D0000696D6167652E7372656314
S11300000C942A000C9459000C943C000C943C0071
S11300100C943C000C943C000C943C000C943E006A
S11300200C943C000C943C000C943C000C943C005C
S11300300C943C000C943C000C943C000C943C004C
S11300400C943C000C943C000C943C000C943C003C
S11300500C943C0011241FBECFE5D8E0DEBFCDBF19
S113006010E0A0E6B0E001C01D92A736B107E1F7A9
S11300700E94AD000C94CD000C9400001F920F92CE
S11300800FB60F9211248F9380916000813059F440
S113009080916400813039F480916300880F8093EB
S11300A06300109264008F910F900FBE0F901F9009
S11300B018951F920F920FB60F9211242F933F930E
S11300C08F939F938CB59DB5209165003091660008
S11300D08217930748F08CB59DB5821B930B9093C0
S11300E062008093610008C08CB59DB5281B390B54
S11300F030936200209361008091610090916200CE
S1130100855F91408D5B9A4018F481E08093640090
S113011081E08093600085B7816085BF85B7826088
S113012085BF80EF85BB9F918F913F912F910F9059
S11301300FBE0F901F9018958EB588608EBD8EB53A
S113014084608EBD8EB581608EBD89B7806189BFA4
S113015088E09DE39BBD8ABD08958FEF84BB0E9418
S11301609C008BB780648BBF85B7816085BF85B7E2
S1130170826085BF7894FFCF8BB780648BBF08956E
S113018085B7816085BF85B7826085BF089585B7CF
S111019085BF85B7826085BF0895F894FFCFC0
S9030000FC
